:020000040800F2
:10000000B00700204D02000821230008051C00084D
:100010001D230008E5040008D924000800000000A2
:100020000000000000000000000000000D24000897
:10003000E90400080000000025230008112400083E
:1000400067020008670200086702000867020008EC
:1000500067020008670200086702000867020008DC
:1000600067020008670200086702000867020008CC
:1000700067020008670200086702000867020008BC
:1000800067020008670200086702000867020008AC
:10009000670200086702000867020008670200089C
:1000A000670200086702000867020008670200088C
:1000B000670200086702000867020008291C0008A0
:1000C000091C0008670200086702000867020008B0
:1000D000670200086702000867020008670200085C
:1000E000670200086702000867020008670200084C
:1000F000670200086702000867020008670200083C
:10010000670200086702000867020008670200082B
:10011000670200086702000867020008670200081B
:10012000670200086702000867020008670200080B
:1001300067020008670200086702000867020008FB
:1001400067020008670200086702000867020008EB
:1001500067020008670200086702000867020008DB
:1001600067020008670200086702000867020008CB
:10017000670200086702000867020008000000002C
:1001800067020008670200086702000867020008AB
:10019000670200086702000867020008670200089B
:1001A00067020008670200086702000800F002F812
:1001B00000F03CF80AA090E8000C82448344AAF1C5
:1001C0000107DA4501D100F031F8AFF2090EBAE8C3
:1001D0000F0013F0010F18BFFB1A43F0010318477B
:1001E0000028000020280000103A24BF78C878C1F9
:1001F000FAD8520724BF30C830C144BF04680C602D
:10020000704700000023002400250026103A28BF74
:1002100078C1FBD8520728BF30C148BF0B60704778
:100220001FB502F0C4FB1FBD10B510BD00F020F9D2
:100230001146FFF7F5FF02F051F900F03EF903B463
:10024000FFF7F2FF03BC00F045F9000009488047C2
:1002500009480047FEE7FEE7FEE7FEE7FEE7FEE7A8
:10026000FEE7FEE7FEE7FEE704480549054A064BC0
:1002700070470000C5240008AD010008B00100204F
:10028000B0070020B0030020B003002053EA020CA6
:1002900000F069802DE9F04B4FF00006002B1FBFE6
:1002A000B3FA83F503FA05F424FA05F65E4012BFAB
:1002B0001643B2FA82F502FA05F4C5F120051EBF15
:1002C00022FA05FC44EA0C04203556EA044C4FEAB5
:1002D000144418BF641C4FF000084FF0000990420E
:1002E00071EB030C39D3002919BFB1FA81F701FA78
:1002F00007F6B0FA80F700FA07F6C7F120071EBF2D
:1003000020FA07FC46EA0C062037B6FBF4FCA7EB04
:100310000507103F07F01F0BCBF120062CFA06F65D
:100320000CFA0BFB44BFB3460026202FA4BF5E4649
:100330004FF0000B5BEA060C08BF4FF0010B19EB06
:100340000B0948EB0608ABFB027C06FB02CC0BFB5F
:1003500003CCC01B71EB0C01C1E70B4602464146C2
:100360004846BDE8F08B13B5084318BF4FF0FF3087
:100370000146AFF30080BDE81C407047032A40F2FD
:10038000308010F0030C00F0158011F8013BBCF137
:10039000020F624498BF11F801CB00F8013B38BF4F
:1003A00011F8013BA2F1040298BF00F801CB38BF5D
:1003B00000F8013B11F0030300F02880083AC0F078
:1003C000088051F8043B083A51F804CBA0E8081023
:1003D000F5E7121D5CBF51F8043B40F8043BAFF356
:1003E0000080D20724BF11F8013B11F801CB48BFB0
:1003F00011F8012B24BF00F8013B00F801CB48BFE6
:1004000000F8012B704770477047704710B5203ACD
:10041000C0F00B80B1E81850A0E81850B1E81850AF
:10042000A0E81850203ABFF4F5AF5FEA027C24BF81
:10043000B1E81850A0E8185044BF18C918C0BDE86A
:1004400010405FEA827C24BF51F8043B40F8043B33
:1004500008BF7047D20728BF31F8023B48BF11F8E8
:10046000012B28BF20F8023B48BF00F8012B704742
:10047000754600F02BF8AE4605006946534620F05D
:100480000700854618B020B5FFF7EEFEBDE8204016
:100490004FF000064FF000074FF000084FF0000B40
:1004A000AC46ACE8C009ACE8C009ACE8C009ACE8AF
:1004B000C00921F007018D46704710B50446AFF31F
:1004C00000802046BDE81040FFF7B9BE00487047E5
:1004D0001000002001491820ABBEFEE726000200F4
:1004E00070470000FEE700007047000090F83510EC
:1004F000022909D1052180F835100068016821F032
:100500000101016000207047802141650120704792
:1005100090F8350070470000B0B5044600F0EAF8E6
:10052000054640F20000C2F200000078611C18BFCE
:10053000044400BF00F0DEF8401BA042FAD3B0BD77
:100540002DE9F04F82B000F13E4242F2004502F147
:10055000FF77C4F202050A2243F6004E4FEAB7269F
:10056000A84208BF0922C4F2010E092E38BF4FEA83
:10057000B7220125002600274FF00008009208E06E
:1005800008F101080437B8F1100F06F1020600F077
:10059000A7800C6805FA08F914EA090FF0D0D1F821
:1005A00004B003220BF0030CACF10104B240012CA7
:1005B0006FEA020A10D88268CC6802EA0A02B440E4
:1005C000224382604268CBF3001422EA090204FA53
:1005D00008F42243426005E0BCF1030F02D14FF062
:1005E000030C20E0C2688C6802EA0A02B44022438D
:1005F000BCF1020FC26016D16FF0030202EA58028A
:100600000244D2F820C007F01C050F230C69AB4050
:100610002CEA030304FA05F52B431362D1F804B066
:1006200001250BF0030C02680CFA06F302EA0A0239
:100630001A431BF4403F0260A2D0002243F6440359
:100640000192C4F202031A684FF6084C42F4804249
:100650001A601A68CFF6FF7C02F480420192019A78
:1006600028F00302724452F80C3007F00C050F24F6
:10067000AC40A343009C04FA05F52B4342F80C3030
:10068000DEF808204B6842EA090543F60C4CDC0210
:1006900058BF22EA0905CEF80850C4F2010CDCF874
:1006A00000209C0242EA090558BF22EA0905CCF85D
:1006B0000050DEF804209C0342EA090558BF22EAF4
:1006C0000905CEF80450DEF80020DB0342EA0905F4
:1006D00058BF22EA0905CEF80050012550E700BFB7
:1006E00002B0BDE8F08F0000002A08BF0904816154
:1006F0007047000040F2A810C2F200000068704786
:1007000090F83D20202A1CBF02207047242280F848
:100710003D200268136823F001031360536A23F03D
:1007200010035362536A19435162116841F0010189
:100730001160202180F83D100020704790F83D2086
:10074000202A1CBF02207047242280F83D20026826
:1007500089B2136823F001031360D2F824C04FF666
:10076000F07303EA0C0319435162116841F001016F
:100770001160202180F83D10002070477047000074
:1007800070470000F0B581B0044600680025476955
:10079000426894F83E1002F48076FA0505D5002EE2
:1007A0001EBF6FF4807242610125BA0505D5002E87
:1007B0001EBF02356FF4007242617A0516D5AEB1E4
:1007C000628D94F83D30D4F830C0202908BF002A4B
:1007D00024D06FF48062402905F10405426101D004
:1007E000102903D1016841F400710160380507D573
:1007F00036B1206808356FF40061416101E000BF47
:1008000055B1206C40EA05012046216401B0BDE8E5
:10081000F04001F0B1BA00BF01B0F0BD03F0F70144
:10082000212909D0282B08BFBCF1210F04D06FF477
:10083000806141610435D9E794F83D10E26AB2F174
:10084000080318BF0123203A18BF0122134208BF32
:1008500028291DD0212935D10021CFF6FF71E16271
:1008600021212163202184F83D10002184F83E10CD
:10087000416821F4E06141606FF480614161016889
:1008800021F480610160204600F038FCAEE700BF33
:100890000021CFF6FF71E162416821F4E06141601F
:1008A0006FF480614161016821F480610160002082
:1008B0002021206384F83D1084F83E00204600F09B
:1008C000C9FB93E76FF4806141618FE7F0B581B0B8
:1008D000076804467868E26A94F83E3094F83DE090
:1008E000402B01D0102B27D1BE697D69E90751D17A
:1008F000B2F12A4F00F0A082B2F52A0F00F09C82DC
:1009000000F400724FF0010C29078CEA522C45D5F7
:10091000002A43D0606B616CC9B2396118B1C06BF9
:10092000002840F02481A06B002800F08582C06B75
:10093000002840F01C817FE2216C00F40073002944
:100940000CBFBE6900267D69A90753D5002B51D085
:10095000206C002818BFBE6994F83D0000F0280004
:10096000282840F093807868002320F48060786025
:10097000012020EA960130064FF0180058BF0C20E5
:10098000225A204684F83C3001B0BDE8F040FFF721
:10099000F7BE00BF810557D44FF0010CA90759D508
:1009A000BCF1000F56D194F83E30E06A226B94F807
:1009B0003D10222940F0E280216D002908BF402B24
:1009C00000F0DC80216D002940F032812169B1F511
:1009D000404F40F02D810020009078690090B86968
:1009E00000900098386840F480703860206D0130C5
:1009F0006BE200BFE90655D5002B53D094F83D506B
:100A0000786820F4E06078600020009078690090B9
:100A1000386840F0010038600098386820F4806041
:100A200038607868000540F1408105F0F7002646FF
:100A3000222840F0198156F8380F0168496826F8D5
:100A40000E1C36F80E1C17E1E06AB0F52A0F5FD1D4
:100A5000012062E07968720701F4006100F198807A
:100A6000002940F0E981690605F0040140F1AC81FC
:100A700010F4806000F0A881002940F0A581204694
:100A800001B0BDE8F04001F0B1BA00BF0020009015
:100A900079690091B9690091009984F83C0001B02E
:100AA000F0BD00BF0EF0F70100F48062212905F0CF
:100AB000040040F08380290640F14881002A00F0BC
:100AC0004581002840F0428194F83D00618D002965
:100AD00000F0B281616A11F8012B3A616162618DA7
:100AE00001396185618D002908BF292840F0A48162
:100AF0007868282120F480607860212020632046D7
:100B000084F83D1001B0BDE8F04000F0F7BA00BF36
:100B1000E06AB0F12A4F01D10820E06294F83E006B
:100B200040280BD1206D616C002801F0FE0018BF39
:100B300040F00100386101B0F0BD00BF2069B0F5A0
:100B4000804F65D194F83D00616C212801F0FE01D1
:100B500018BF01313961606B08B1C06B38B9A06B47
:100B6000002800F06981C06B002800F0658178687A
:100B700040F40060786001B0F0BD00BF002000903C
:100B800078690090B8690090009801B0F0BD00BF8E
:100B9000002940F05181290605F0040140F120812F
:100BA00010F4806000F01C81002940F0198120467B
:100BB00001B0BDE8F04001F0FDBA00BF690640F1A8
:100BC000D780002A00F0D480002840F0D18094F82B
:100BD0003D00618D002900F02F813969626A117032
:100BE000616A01316162618D01396185618D002920
:100BF00008BF2A2840F020812068416821F48061E4
:100C00004160222028212063204684F83D10D6E050
:100C1000206D002800F0BE80206D012840F00C817E
:100C2000606C062101EAD010F130386101B0F0BDEE
:100C3000618D61B1618D012940F0E280202818BFEB
:100C4000082840F0FB80386820F48060386000207D
:100C5000009078690090B86900900098386840F476
:100C60000070386030E100BF56F8340F0168496801
:100C700026F80A1C36F80A1C19B1216C41F004014F
:100C80002164796821F400617960FFF741FC012853
:100C90000BD0306841F65541C0F600010165FFF701
:100CA00025FC10B13068016D8847608D60B1206807
:100CB0004169490730D4416949063AD4608D18B179
:100CC000206C40F004002064206C28B1204601B064
:100CD000BDE8F04001F050B82A2D07D10020206374
:100CE000282084F83D00204600F006FA94F83D00E4
:100CF000282857D10020CFF6FF70E0620021202085
:100D0000216384F83D00204684F83E1001B0BDE820
:100D1000F04000F09FB900BF0069616A0870616A25
:100D2000206801316162618D01396185416949063F
:100D3000C4D50069616A0870606A01306062608DC4
:100D400001386085608D0028BAD1BDE7002818BF42
:100D5000002B71D0608D00286ED0606A10F8011BE6
:100D600039616062608D0138608501B0F0BD00BFFF
:100D7000002818BF002B5FD0608D00285CD0386938
:100D8000616A0870606A01306062608D0138608558
:100D900052E000BF606C062101EAD010F0303861EB
:100DA00001B0F0BD206B222818BF222D44D10021B4
:100DB0002020216384F83D00204684F83E1001B0D5
:100DC000BDE8F04000F098B9B1FA81F0400950EA6E
:100DD0000C0031D1204601B0BDE8F04001F092B8DE
:100DE000B1FA81F0400950EA0C0025D1BEF1210F83
:100DF0001AD1204601B0BDE8F04001F099B900BF1A
:100E0000618D02290CD110283CD801211422814087
:100E1000C0F20102114235D04FF4806238E000BFC9
:100E2000396841F4806135E0402B05D1204601B09E
:100E3000BDE8F04001F018BA01B0F0BD10F5803FF8
:100E40000CD1386820F480603860786800057FF540
:100E5000FEAE386820F4806038602EE0122A02D19D
:100E600001287FF4F0AE1028F3D8012101FA00F038
:100E70001421C0F201010842EBD0386840F48060D0
:100E800038601AE039684FF4006221F480613960FB
:100E9000396811433960796809050ED5421E1F2A49
:100EA00016D80121914048F28102C8F20002114295
:100EB0000ED0786840F48050786000200090786907
:100EC0000090B869009000980020206501B0F0BD46
:100ED00010F5803FEDD0F0E77047000070B5B8B373
:100EE000044690F83D0028B9002084F83C002046D4
:100EF00000F0BAF8242084F83D002068016821F051
:100F000001010160016841F400410160016821F4C0
:100F10000041016000F0A2FA48F28041C0F21E01D7
:100F200040F60013D4F804E088424FF00001C0F20C
:100F30003D0348F2A16C4FF0000238BF01219842F6
:100F4000C0F2010C38BF0122E64538BF0A460AB19B
:100F5000012070BD4DF68361C4F21B31A0FB01126C
:100F60002168950C4B684FF4967623F03F0343EAD3
:100F70009243754344F6D3564B60C1F262060B6A46
:100F8000A5FB0656B50923F03F03E64538BF950C8F
:100F90006A1C1A430A62CA6948F2A0664CF6FF73DB
:100FA000C0F20106B64522EA03020BD801384FEA27
:100FB0004E03B0FBF3F001306FF31F30042898BFED
:100FC00004201EE0A368013863B119230EFB03F36C
:100FD000B0FBF3F001306FF31F3078B100F58040C3
:100FE00008E000BF0EEB4E03B0FBF3F001306FF3EF
:100FF0001F3028B100F5004003E000BF012000E0F1
:1010000001201043C8610868D4E9072320F0C0001C
:10101000104318430860886848F2FF3204F10C0658
:1010200090434CCE18431043A5698860C86820F0EF
:10103000FF0030432843C860086840F001000860A2
:1010400000202021206484F83D10206384F83E00B5
:1010500070BD00007047000070470000704700003E
:101060007047000070470000B0B586B0016845F2D7
:101070000040C4F20000814202D006B0B0BD00BF03
:10108000002543F630040195C4F20204216800F5FE
:10109000D83041F002012160216801F00201019184
:1010A00001994FF4407101911221029101210391A4
:1010B000032104910421059101A9FFF741FA00954C
:1010C0002069002140F4001020612069002200F412
:1010D0000010009000981F2000F0D4F81F2000F0AE
:1010E000BDF820200021002200F0CCF8202000F0E4
:1010F000B5F806B0B0BD00007047000070470000B2
:1011000090F83D30202B0BD100294FF0010318BF80
:10111000002A01D11846704790F83C30012B01D1CC
:1011200002207047D0F800C0DCF80030DB0705D1A2
:10113000DCF8003043F00103CCF80030DCF800307C
:1011400023F40063CCF80030222380F83D302023C4
:1011500080F83E300023036441624285418D018561
:101160000021CFF6FF71C162DCF8001041F480610C
:10117000CCF8001080F83C30DCF8040040F4E0606B
:10118000CCF804001846704740F2000040F2A81165
:10119000C2F20000C2F2000100780A681044086040
:1011A0007047000080B543F60040C4F202000168B9
:1011B00041F400710160016841F4806101600168DF
:1011C00041F480710160032000F088F80F2000F0E6
:1011D00005F800F027F8002080BD000070B540F24F
:1011E0000006C2F2000640F208013278C2F20001A5
:1011F0004FF47A730968B3FBF2F20446B1FBF2F1E3
:10120000084600F0E9FC0F2C4FF0010508D838B96A
:101210004FF0FF3021460022002500F033F87460C3
:10122000284670BD82B0002043F640010190C4F210
:1012300002014A6842F480424A604A6802F48042ED
:101240000192019A0090086840F080500860086898
:1012500000F080500090009802B07047002848BF0E
:101260007047C1B200F01F00012202FA00F04EF2F6
:101270000012CEF2000242EAD10121F0030108601F
:101280007047000010B54EF60C5CCEF2000CDCF896
:101290000030C3F3022E8EF00704042C28BF042470
:1012A000BEF103034FF0FF3E0EFA04F438BF0023F3
:1012B000A14399400EFA03F39A43114300F00F0241
:1012C00000F160430901043A03F5644362440028D5
:1012D00048BF02F10C03197010BD00004EF60C510E
:1012E000CEF200010A684FF6FF031A4060F30A22AB
:1012F00042F0806040F0FD70086070472DE9F041D9
:10130000002800F08B8043F60808C4F20208044667
:10131000D8F8F8030D4600F00F00884207D288F88D
:10132000F853D8F8F80300F00F00A84276D12068EF
:10133000810717D5410705D5D8F8001041F4E051D1
:10134000C8F80010010705D5D8F8001041F4604135
:10135000C8F80010D8F80010A26821F0F00111437D
:10136000C8F80010C0073FD1D8F8F80300F00F000C
:10137000A84207D988F8F853D8F8F80300F00F000E
:10138000A8424BD12068410707D5D8F80010E26881
:1013900021F4E0511143C8F80010000708D5D8F82F
:1013A0000000216920F4604040EAC100C8F8000054
:1013B00000F068F8D8F8001042F6C812C1F3031123
:1013C000C0F60002515C40F2080220FA01F140F23E
:1013D0000400C2F200000068C2F200021160FFF7D0
:1013E000FDFE0020BDE8F0816068811E022907D261
:1013F00058F8081C89015CBF0120BDE8F08111E0AC
:10140000012807D158F8081C89035CBF0120BDE8FA
:10141000F08107E058F8081C890703D40120BDE8D3
:10142000F08100BFD8F8001021F003010843C8F88C
:101430000000FFF75FF9064641F28837D8F8000050
:10144000616800F00C00B0EB810F8DD0FFF752F90E
:10145000801BB842F2D90320BDE8F08140F20800B9
:1014600043F60801C2F20000C4F2020100680968F4
:1014700042F6D812C1F38221C0F60002515CC84086
:101480007047000010B543F60404C4F2020460681B
:1014900000F00C0142F200400829C0F2F40007D02D
:1014A000042918BF10BD41F20020C0F27A0010BD1F
:1014B000216801F03F02216823684902C3F38811C3
:1014C00006D4A1FB00010023FEF7E0FE07E000BF09
:1014D00041F20020C0F27A004843B0FBF2F02168EC
:1014E0000222C1F3014102EB4101B0FBF1F010BD5A
:1014F0002DE9F04182B0002868D00446007843F618
:101500000006C007C4F202060BD0B06800F00C0061
:10151000042840F09F803068800302D5606800286E
:1015200054D0207880071AD5B06810F00C0F09D07D
:10153000B06800F00C00082840F0A68070684002F7
:1015400000F1A2803068800702D5E06801283DD113
:101550003068216920F0F80040EAC100306020784E
:10156000000737D4207840074CD4A56955B3B0683C
:1015700000F00C00082840F0BB80012D26D07068D8
:10158000E16900F480028A4220D1216A00F03F0222
:101590008A421BD147F6C071626A0140B1EB821FDB
:1015A00014D1A16A4FF6FF73C903994300F4403286
:1015B000A1F580318A4209D1E16A00F07060B0EB98
:1015C000016F03D1002002B0BDE8F081012002B01C
:1015D000BDE8F0816069002840F20000C4F24720B5
:1015E00076D00121C0F8801EFFF784F8054600BFC1
:1015F000706F8007B6D4FFF77DF8401B0228F7D93B
:10160000DDE000BF306C10F080580AD1002001905E
:10161000306C40F080503064306C00F080500190AD
:10162000019847F20007C4F200073868C00541D4AA
:10163000386840F480703860FFF75CF8054600BFFA
:101640003868C00536D4FFF755F8401B0228F7D993
:10165000B5E000BFB06800F00C00082803D1706846
:1016600040023FF558AF6068B0F5803F07D0B0F555
:10167000A02F40F08D80306840F4802030603068CA
:1016800040F4803030608DE0E068002852D00020C7
:10169000C4F2472001210160FFF72CF8054600BF86
:1016A000306880073FF554AFFFF724F8401B02284D
:1016B000F6D984E0A068012805D005284ED1306F06
:1016C00040F004003067306F40F0010030674FE0B9
:1016D0000021C0F8801EFFF70DF80546706F8007E7
:1016E0007FF540AFFFF706F8401B0228F6D966E009
:1016F0000027C4F2472700203866FEF7FBFF022DC3
:1017000005460BD1306880015ED5FEF7F3FF401B24
:1017100002284FF00300F5D955E700BF306880017B
:101720007FF550AFFEF7E6FF401B02284FF00300A5
:10173000F4D948E70020C4F2472000210160FEF7F9
:10174000D9FF0546306880077FF509AFFEF7D2FF65
:10175000401B02284FF00300F4D934E7316F002812
:1017600021F001013167316F21F0040131674DD063
:10177000FEF7C0FF054641F2883700BF306F800793
:1017800056D4FEF7B7FF401BB842F7D917E000BFA9
:101790003168002821F480313160316821F48021E2
:1017A00031604FD0FEF7A6FF054600BF30688003CA
:1017B0003FF5B7AEFEF79EFF401B6428F6D9032025
:1017C00002B0BDE8F08100BF04F11C052FCD084335
:1017D00040EA8210D9034FF6FF729143A1F58031A0
:1017E00040EA05600843706001203866FEF782FF1A
:1017F000044600BF306880013FF5E4AEFEF77AFF93
:10180000001B02284FF00300F4D9DCE6FEF772FF5C
:10181000054641F2883700BF306F800708D5FEF7D4
:1018200069FF401BB8424FF00300F5D9CBE600BF7B
:10183000B8F1000F7FF499AE306C20F08050306426
:1018400093E600BFFEF756FF054600BF30688003F1
:101850007FF567AEFEF74EFF401B64284FF0030094
:10186000F4D9B0E670B538B10446406A30B1002012
:10187000206104F1140007E0012070BD6068B0F53C
:10188000827F03D004F11C00002101600026A662C3
:1018900094F8510020B9204684F8506000F03CF8DC
:1018A000022084F8510094E80F0001F48271056869
:1018B00002F4044225F040050560114403F400627F
:1018C0002369114403F002026369114403F0010229
:1018D000A369E569114403F40072114405F038026C
:1018E000256A114405F08002A56A114305F40052EF
:1018F00011430160626A042101EA134102F01002FF
:1019000011444160C16921F40061C1610120666533
:1019100084F85100304670BD80B586B0016843F24E
:101920000000C4F20100814202D006B080BD00BFB9
:10193000002143F630020191C4F20202536900F51E
:10194000504043F480535361536903F4805301932F
:10195000019B0191136843F001031360126802F0C8
:1019600001020192019AA02201920222CDE90221F4
:10197000032104910521059101A9FEF7E1FD06B0BF
:1019800080BD00002DE9F04383B0044690F850007C
:10199000012803D1022003B0BDE8F0834FF0010914
:1019A0001D4616460F4684F85090FEF7A3FE94F8A5
:1019B0005110012944D18046002F4FF0010018BF7B
:1019C000002E00F0D6800320002184F851006165CC
:1019D0002763A686E686A163A187E187A0682164C4
:1019E000B0F5004F2068616407D1016821F0400123
:1019F0000160016841F4804101600168490603D437
:101A0000016841F0400101606168731EE268B1FA4B
:101A100081F1B3FA83F349095B09B2F5006F41EA3A
:101A200003013DD131B137F8021BC1602763E08E5D
:101A30000138E086E08E00286CD0681C0DD11EE0D5
:101A4000022096E0216B31F8022BC2602163E08E08
:101A50000138E086E08E00285CD020688168890724
:101A6000F0D4FEF747FEA0EB0800A842F2D3032013
:101A70007FE000BFFEF73EFEE08E00284AD02068DF
:101A800081688907F6D5216B31F8022BC26021638A
:101A9000E08E0138E086E08E0028F0D13AE000BF09
:101AA00039B139780173206B01302063E08E013841
:101AB000E086E08E70B3681C0BD11BE0216B0978C7
:101AC0000173206B01302063E08E0138E086E08EE8
:101AD00000B3206881688907F0D4FEF70BFEA0EB05
:101AE0000800A842F3D3032043E000BFFEF702FE44
:101AF000E08E78B1206881688907F7D5216B097875
:101B00000173206B01302063E08E0138E086E08EA7
:101B10000028EFD140F20800C2F20000006849F648
:101B20008171C1F25E61A0FB0101480D4FF47A7131
:101B3000484302906068B0F5827F23D1204680211F
:101B40002A46434600F0F0FB28B1606D40F02000CB
:101B5000606520206065A06838B900200190206889
:101B6000C1680191806801900198606D002818BFDC
:101B70000120002184F8519084F8501003B0BDE892
:101B8000F08300BF02980028E5D002980138029047
:101B9000206880680006DED502980028DBD0029815
:101BA00001380290206880680006D4D50298002889
:101BB000D1D0029801380290206880680006CAD50A
:101BC00002980028C7D002980138029020688068E7
:101BD0000006D7D4BFE70000411E0020B0EB116F14
:101BE0001CBF012070474EF21002CEF2000251607D
:101BF0004EF62351CEF20001F0230B7007219060C6
:101C000011607047FEE7000080B540F2FC00C2F2B0
:101C10000000FEF7B7FD40F2F400C2F200000168D8
:101C20000131016080BD000080B540F2FC00C2F2CD
:101C30000000FEF74BFE40F2F800C2F2000001681F
:101C40000131016040F27000C2F200000121017018
:101C500080BD000010B581B000210091806B40F282
:101C60000801C2F2000190F83DC009684BF28952A8
:101C7000C908C1F2F842A1FB0212110A2322514302
:101C80000091009911B30099013900910168096828
:101C900089051FD50099C9B10099013900910168E2
:101CA0000968890516D5009981B10099013900911B
:101CB0000168096889050DD5009939B10099013984
:101CC0000091016809688905DBD403E0016C41F0EB
:101CD00020010164446B4FF0000E002C1CBF00215A
:101CE000E163816B00291CBF0022CA630268002CDB
:101CF000136823F480631360A0F82AE018BFC4F8C7
:101D000050E000291CBF00230B65116821F0010180
:101D1000116090F83D1060290CD1202180F83D1011
:101D2000002180F83E10016401B0BDE81040FEF7CC
:101D300025BD00BF0CF02801282911D1116841F000
:101D400001011160116841F480611160002101639B
:101D5000282180F83D1001B0BDE81040FFF7BCB865
:101D6000202180F83D10002180F83E1001B0BDE830
:101D70001040FFF7B1B8000010B5044690F83D10D0
:101D800090F83E00B0F1100218BF0122403818BF91
:101D90000120024208BF222934D001F0280028285F
:101DA0003AD100202063282084F83D002068416853
:101DB000090542D5416821F400614160606B90F8EB
:101DC0003510012958D1A06B41F65541C0F60001EC
:101DD0000165FEF78BFB002861D020684169490648
:101DE00006D50069616A0870616A20680131616224
:101DF000016821F001010160202084F83D00A06B02
:101E00004BE000BF2068026822F400620260426872
:101E1000120505D50CE000BF20684268120507D402
:101E2000602905D0202184F83D10002184F83E105F
:101E30000021216341680905BCD494F83D10602954
:101E400050D1202184F83D100021216441694906C8
:101E500006D50069616A0870616A206801316162B3
:101E6000016821F0010101602046FEF787FC206C2B
:101E7000000717D11BE000BF41F65541C0F6000135
:101E80000165FEF733FB50B12168606B0A6822F0F0
:101E900001020A60202184F83D10016D8847206C02
:101EA000000704D02068416821F4E061416094F8A3
:101EB0003D00216C490758BF10BD282810D10020D3
:101EC000CFF6FF70E06200212020216384F83D00FE
:101ED000204684F83E10BDE81040FFF7BBB800BFB5
:101EE00010BD00BF4169490605D50069616A0870E7
:101EF000606A013060622046FEF7EEFF206C00074A
:101F0000D0D1D4E7C16A428D042A07D10168426A60
:101F10004B6823F480634B60096911E0428D032A0A
:101F200016D102680229536823F48063536005D0F8
:101F3000042903D0116821F4806111601169426A9B
:101F40001170416A01314162418D0139418570470B
:101F5000428D022A12D101390F2919D8DFE801F088
:101F6000081218121818181818181818181818081D
:101F700001680A6822F480620EE000BF0168426ACC
:101F8000CAE700BF01680A6842F4806204E000BF4B
:101F900001680A6842F400720A600969426A1170B5
:101FA000416A02684B1C4362438D013B43851269C1
:101FB0004A70416A026801314162418D01394185AF
:101FC000516821F440715160202180F83D1090F853
:101FD0003E200021402A80F83E1003D10163FFF724
:101FE0003FB800BF12210163FFF736B881B090F807
:101FF0003D10222977D1418D042913D30168426A0B
:1020000009691170416A01314162418D013941858F
:10201000418D032967D10068416821F480614160E6
:1020200001B07047C26A022A58D0012956D800214F
:10203000009140F20801C2F2000109684BF2895296
:10204000C908C1F2F842A1FB0212110A01EB810199
:1020500000910099013900910099002946D001684A
:102060000A6892051AD50099013900910099E9B3DF
:1020700001680A68920511D500990139009100990B
:10208000A1B301680A68920508D500990139009149
:10209000009959B301680A689205DAD40A6822F4F3
:1020A00080620A604A6822F4E0624A600969426A12
:1020B0001170416A01314162418D01394185202110
:1020C00080F83D1090F83E200021402A80F83E1014
:1020D00028D1016301B0FEF7C3BF00BF00684168AB
:1020E00021F48061416001B0704700BF016C41F094
:1020F000200101640168426A4B6823F4E0634B608D
:1021000009691170416A01314162418D013941858E
:10211000202180F83D10002180F83E1001B0FEF72C
:10212000DBBE00BF1221016301B0FEF795BF0000C6
:10213000C16A90F83D20212A18BF7047428D4AB1EC
:10214000416A026811F8013B13614162418D013916
:102150004185704711F5803F18BF082918D10168E3
:102160004A6822F4E0624A600A6842F400720A6037
:1021700000212022016380F83D2090F83E2080F865
:102180003E10402A08BFFEF76DBFFEF767BF00BFD5
:102190002029E4D001684A6822F4E0624A601121F3
:1021A0000163002180F83E10202180F83D10FEF7E9
:1021B00055BF000090F83D1090F83EC0C26A038DF4
:1021C000002B08BF212919D0212905D0BCF1400FCF
:1021D00008BF222900D07047418D69B390F83E10A6
:1021E000402908BF00F040B8416A026811F8013B7D
:1021F00013614162418D01394185704712F5803F7D
:1022000018BF082A1ED101684A6822F4E0624A60B9
:102210000A6842F400720A6000212022016380F8FB
:102220003D2090F83E2080F83E10402A08BFFEF77F
:1022300019BFFEF713BF00BF0068416821F4806139
:1022400041607047202ADED001684A6822F4E062CB
:102250004A6011210163002180F83E10202180F89E
:102260003D10FEF7FBBE000090F83D10026D5AB124
:10227000026D012A14D10168826CD2B20A61016D2B
:1022800001310165704700BFC26C816C012A17D112
:102290000268C9B21161016D02310165704700BF6A
:1022A000026D022A18BF7047222911D101680A68FD
:1022B00042F480720A60016D01310165704700BF10
:1022C0000268C1F307211161016D0131016512E05E
:1022D000428D5AB1212909D1416A026811F8013BA6
:1022E00013614162418D013941857047428D002A59
:1022F00008BF212900D0704701684A6822F4E062D3
:102300004A600A6842F400720A60002120220163D8
:1023100080F83D2080F83E10FEF7A4BEFEE70000E6
:10232000FEE70000704700002DE9F04182B01E4634
:1023300090460D460446FEF7DDF9301A00EB08071B
:10234000FEF7D8F940F20801C2F200010968C1F3B2
:10235000CB317943019121688A682A40AA4227D16A
:10236000064618F101001FD0FEF7C4F9801BB842E1
:1023700022D2019801990028A1F10101019121685F
:10238000896808BF074601EA0500A842ECD00FE0C3
:1023900088682840A8420BD188682840A84207D105
:1023A00088682840A84203D188682840A842EFD016
:1023B000002002B0BDE8F081D4E900014268B1F527
:1023C000827F22F0E00242600AD1A168B1F5004F9D
:1023D00002D0B1F5806F03D1016821F040010160A6
:1023E000A16AB1F5005F07D1016821F400510160D5
:1023F000016841F400510160012084F8510000207F
:1024000084F85000032002B0BDE8F081704700005E
:10241000FEF7BABE10B592B0002043F64001CDE9F8
:102420000A00CDE908000590CDE90300CDE90100DF
:102430000090C4F202010A68022442F080520A604D
:102440000968012201F0805100910099009047F243
:102450000000C4F20000016862F38F31016000687F
:1024600000F44040009000984FF4803007904FF403
:1024700080000D9008200E90C820CDE90F040420A4
:10248000119006A806920C94FFF732F820B1EFF3F2
:10249000108072B6FEE700BF0F20CDE90104802056
:1024A00003904FF48050CDE9040001A80121FEF70C
:1024B00025FF28B1EFF3108072B600BFFEE700BF22
:1024C00012B010BD4EF68850CEF20000016841F403
:1024D0007001016070470000FEE7000086B041F621
:1024E0000008C4F20208FEF75DFEFFF793FF002428
:1024F00043F6300005940094C4F202000168A8F588
:10250000806641F0800101600168002201F08001D5
:1025100000910099009401684FF4405741F0010187
:102520000160016801F001010091009900940168C7
:1025300041F020010160016801F020010091009943
:102540000094016841F008010160016801F0080190
:10255000009100990094016841F040010160016818
:1025600001F04001009100990094016841F00201DE
:10257000016000684FF4405100F0020000900098A4
:102580003046FEF7B1F8A8F5406528464FF4004103
:1025900000224FF40049FEF7A7F840464FF40071BF
:1025A00000224FF4007AFEF79FF8019701AF4FF039
:1025B000010B30463946CDE902B40494FDF7C0FF63
:1025C00028463946CDE9019BCDE90344FDF7B8FF24
:1025D00040463946CDE901ABCDE90344FDF7B0FFF4
:1025E00040F2FC00A8F5E231C2F2000048F2A0621D
:1025F00014234FF48047C0F2010280E81600C0E9BE
:102600000337C0E90544C0E90744FEF767FC28B179
:10261000EFF3108072B600BFFEE700BF40F2FC008F
:10262000C2F200000021FEF76BF828B1EFF3108032
:1026300072B600BFFEE700BF40F2FC00C2F200002D
:1026400000210024FEF77AF820B1EFF3108072B673
:10265000FEE700BF40F25010A8F56841C2F200004A
:102660004FF482724FF4007380E816000A21C0E92B
:102670000344C0E90543C461C0E90844C0E90A4114
:10268000FFF7F0F820B1EFF3108072B6FEE700BF5D
:1026900040464FF400710122FEF726F840F2700721
:1026A000C2F2000740F2FC0540F2B4067C1CC2F204
:1026B0000005C2F200064FF0000800BF2846214680
:1026C0004022FEF71DFD304621464022FDF756FE12
:1026D00038780028F2D0304600F004F887F80080FF
:1026E000ECE700002DE9F04F81B041F20045C4F263
:1026F000020540F2501781460024A5F50068C2F299
:1027000000074FF0000A4FF0000B33E128464FF46A
:1027100000510122FDF7E8FF09EB04063846314677
:1027200001220223FFF72EF928464FF40051002220
:10273000FDF7DAFF28464FF400510122FDF7D4FFE0
:10274000711C384601220223FFF71CF928464FF47A
:1027500000510022FDF7C8FF28464FF40051012226
:10276000FDF7C2FFB11C384601220223FFF70AF928
:1027700028464FF400510022FDF7B6FF28464FF4DB
:1027800000510122FDF7B0FFF11C3846012202235F
:10279000FFF7F8F828464FF400510022FDF7A4FF98
:1027A00028464FF400510122FDF79EFF311D3846A7
:1027B00001220223FFF7E6F828464FF400510022D9
:1027C000FDF792FF28464FF400510122FDF78CFFE0
:1027D000711D384601220223FFF7D4F828464FF432
:1027E00000510022FDF780FF28464FF400510122DE
:1027F000FDF77AFFB11D384601220223FFF7C2F828
:1028000028464FF400510022FDF76EFF28464FF492
:1028100000510122FDF768FFF11D38460122022315
:10282000FFF7B0F828464FF400510022FDF75CFF97
:1028300028464FF400510122FDF756FF06F108012A
:10284000384601220223FFF79DF828464FF4005135
:102850000022FDF749FF28464FF400510122FDF701
:1028600043FF06F10901384601220223FFF78AF8E7
:1028700028464FF400510022FDF736FF28464FF45A
:1028800000510122FDF730FF06F10A01384601220E
:102890000223FFF777F828464FF400510022FDF796
:1028A00023FF28464FF400510122FDF71DFF06F1DA
:1028B0000B01384601220223FFF764F828464FF443
:1028C00000510022FDF710FF28464FF4005101226D
:1028D000FDF70AFF06F10C01384601220223FFF73B
:1028E00051F828464FF400510022FDF7FDFE28461E
:1028F0004FF400510122FDF7F7FE06F10D013846B5
:1029000001220223FFF73EF828464FF4005100222F
:10291000FDF7EAFE28464FF400510122FDF7E4FEE0
:1029200006F10E01384601220223FFF72BF8284654
:102930004FF400510022FDF7D7FE28464FF4005116
:102940000122FDF7D1FE06F10F01384601220223D4
:10295000FFF718F828464FF400510022FDF7C4FE97
:102960000120FDF7D9FD10340BF1010B402C0AF1C9
:10297000080A19D01BF0FC0F7FF4C8AE4FF001100D
:1029800020FA0AF040F2011121FA0AF6C2B22846F2
:102990004FF48051FDF7A8FEF2B240464FF40041DB
:1029A000FDF7A2FEB2E600BF01B0BDE8F08FF1EE88
:1029B000100A4FF6FF71C0F2C03120EA010040F06A
:1029C0004070E1EE100A70470000000000000000B7
:1029D00001020304060708090000000001020304C5
:1029E000002A00080000002010000000E801000894
:1029F000102A000810000020A007000004020008B0
:102A000001000000100000000024F400000000009D
:04000005080001AD41
:00000001FF
